:100000000C942A000C9447000C9447000C94470071
:100010000C9447000C9447000C9447000C94470044
:100020000C9447000C9447000C9447000C94470034
:100030000C9447000C9459000C9447000C94470012
:100040000C9447000C9447000C9447000C94470014
:100050000C94470011241FBECFE5D8E0DEBFCDBF12
:1000600010E0A0E6B0E0EAE3F7E002C005900D92F0
:10007000A836B107D9F720E0A8E6B0E001C01D928C
:10008000AD36B207E1F70E9438010C949B030C9443
:1000900000005D9BFECF8CB9089597B1907F97B912
:1000A00097B1892B87B9369A3699FECF84B195B12D
:1000B00008951F920F920FB60F9211242F933F9322
:1000C0004F935F936F937F938F939F93AF93BF9360
:1000D000EF93FF93ECB1EB50ED3208F04CC0F0E041
:1000E000EC58FF4F0C949503A100A700AC00B100A1
:1000F000FB001F01BB00BB00BB00BB00D800DC0045
:10010000E000E400F4001701BB00BB00BB00BB0033
:10011000E800EA00EC00EE00F9003201BB00BB0091
:10012000BB00BB00B800CC00D000D400F00022011E
:10013000BB00BB00BB00BB00BB00BB00BB00BB00E7
:10014000090183B382958170809367005BC083B39C
:1001500085FB882780F9F8CF83B386FB882780F951
:10016000F3CF83B390E0880F892F881F990BECCFD2
:1001700081E080936300FF91EF91BF91AF919F91D8
:100180008F917F916F915F914F913F912F910F9040
:100190000FBE0F901F90189581E080936400EBCF05
:1001A00081E080936500E7CF81E080936600E3CF34
:1001B000AC9A10926300DFCFAD9A10926400DBCF4F
:1001C000AE9A10926500D7CFAF9A10926600D3CF47
:1001D000AC98EFCFAD98F1CFAE98F3CFAF98F5CF05
:1001E00081E080936200C7CF8FEF8CBF10926200D6
:1001F000C2CF1CBEFBCF8CB7811107C01092670025
:10020000809167000E944900B6CF81E0809367002B
:10021000F7CF57988BB1881F8827881F8130D1F777
:100220009CB19093610080936200579AA4CF8BEDAC
:1002300095E09BBD8ABD82E0809360009CCF809159
:10024000600082CF8BED95E09BBD8ABD82E08093FC
:1002500060002FEF83ED90E3215080409040E1F764
:1002600000C000008FEC97E09BBD8ABD83E0E4CF27
:100270008FB780688FBF8FB580688FBD8FB58F7B3C
:100280008FBD8FB58E7F8FBD8FB582608FBD8EB5D0
:1002900088608EBD8EB580618EBD8EB5887F8EBD27
:1002A0008EB582608EBD8FE19EE497BD86BD8FECDA
:1002B00097E09BBD8ABD12BE1CBEBB9A8BE683BF76
:1002C00087B18F7187B93E9A86B1887F86B986B12A
:1002D000836086B93D98379A80B5806880BD80B5C7
:1002E000826080BD80B5846080BD10BC83E389B925
:1002F000549A539A579AA49AA59AA69AA79AAC98F0
:10030000AD98AE98AF98A09AA19AA898A99A8D9AFC
:10031000DD24DA9496E9C92E22E3B22E01E010E042
:10032000AA24A39480916200882359F181E00E945D
:100330004D00BC0190E080E00E944D0223E23BEDC5
:1003400049EF5EE30E94B3020E9420030E941E0256
:1003500070936900609368008091610090E0209143
:10036000680030916900AC014550510924173507E8
:10037000B0F120916800309169002817390778F5AD
:10038000BCBE10926C0083E6E82E80E0F82EC4E03C
:10039000D0E0F70181917F018823E1F080916C002A
:1003A000811108C00E944D0090936B0080936A00F9
:1003B000A0926C0080916A0090916B008115924030
:1003C00060F585B398010C2E01C0220F0A94EAF75C
:1003D000822B85BB2196C830D105D9F6A3CF409199
:1003E0006800509169009C012B5F3F4F48175907E7
:1003F00048F080916800909169008217930710F48B
:10040000CCBEBFCF8091680090916900821793079E
:1004100010F0DCBEB6CF1CBEB4CF80916A009091C4
:100420006B0081159240B0F225B3C8010C2E01C0BB
:10043000880F0A94EAF780958223CBCF0E9492021C
:1004400088F09F5798F0B92F9927B751B0F0E1F095
:10045000660F771F881F991F1AF0BA95C9F714C045
:10046000B13091F00E94AC02B1E008950C94AC025E
:10047000672F782F8827B85F39F0B93FCCF386957E
:1004800077956795B395D9F73EF4909580957095DB
:1004900061957F4F8F4F9F4F0895E89409C097FB58
:1004A0003EF490958095709561957F4F8F4F9F4F4B
:1004B0009923A9F0F92F96E9BB279395F69587958F
:1004C00077956795B795F111F8CFFAF4BB0F11F452
:1004D00060FF1BC06F5F7F4F8F4F9F4F16C08823F9
:1004E00011F096E911C0772321F09EE8872F762F2F
:1004F00005C0662371F096E8862F70E060E02AF070
:100500009A95660F771F881FDAF7880F969587955B
:1005100097F9089557FD9058440F551F59F05F3FC4
:1005200071F04795880F97FB991F61F09F3F79F015
:1005300087950895121613061406551FF2CF469597
:10054000F1DF08C0161617061806991FF1CF869519
:100550007105610508940895E894BB2766277727FD
:10056000CB0197F908950E94C6020C9484030E945F
:10057000760338F00E947D0320F0952311F00C944F
:1005800044030C94730311240C94AD020E948A025C
:1005900070F3959FC1F3950F50E0551F629FF001D6
:1005A000729FBB27F00DB11D639FAA27F00DB11DEF
:1005B000AA1F649F6627B00DA11D661F829F222778
:1005C000B00DA11D621F739FB00DA11D621F839FFF
:1005D000A00D611D221F749F3327A00D611D231FD5
:1005E000849F600D211D822F762F6A2F11249F5723
:1005F00050409AF0F1F088234AF0EE0FFF1FBB1F26
:10060000661F771F881F91505040A9F79E3F5105E4
:1006100080F00C9444030C94AD025F3FE4F3983EE9
:10062000D4F3869577956795B795F795E7959F5F8E
:10063000C1F7FE2B880F911D9695879597F9089520
:100640000E949202E8F09E37E8F09639B8F49E389E
:1006500048F4672F782F8827985FF9CF869577958C
:10066000679593959539D0F3B62FB1706B0F711DC7
:10067000811D20F487957795679593950C944A038F
:100680000C9465030C94AD0297F99F6780E870E0C5
:1006900060E00895882371F4772321F09850872B28
:1006A000762F07C0662311F499270DC09051862B31
:1006B00070E060E02AF09A95660F771F881FDAF7DE
:1006C000880F9695879597F908959F3F31F091503F
:1006D00020F4879577956795B795880F911D969526
:1006E000879597F908959FEF80EC089500240A9468
:1006F0001616170618060906089500240A941216FD
:100700001306140605060895092E0394000C11F42F
:10071000882352F0BB0F40F4BF2B11F460FF04C0DC
:100720006F5F7F4F8F4F9F4F0895EE0FFF1F059014
:0A073000F491E02D0994F894FFCF36
:08073A0003190101000100FF99
:00000001FF
