:100000000C942A000C943F000C943F000C943F0089
:100010000C943F000C943F000C943F000C943F0064
:100020000C943F000C943F000C943F000C943F0054
:100030000C943F000C943F000C943F000C943F0044
:100040000C943F000C943F000C943F000C943F0034
:100050000C943F0011241FBECFE5D8E0DEBFCDBF1A
:1000600012E0A0E6B0E0E6E5FFE002C005900D92E8
:10007000A432B107D9F70E9499020C94A9070C94F5
:10008000000021E030E001C0220F6A95EAF7452B1D
:10009000C9F420958230910569F08330910571F0A3
:1000A000019721F08BB328232BBB089588B3282315
:1000B00028BB089585B3282325BB089582B3282340
:1000C00022BB08958230910559F08330910559F093
:1000D000019719F08BB3282BE7CF88B3282BE8CFF3
:1000E00085B3282BE9CF82B3282BEACF5D9BFECFC7
:1000F0008CB9089583B984E886BF06B607FEFDCFA4
:10010000089584EA86BF06B607FEFDCF08951F93C3
:10011000CF93DF93182FEB010E94810081B1887F7C
:10012000883029F080E0DF91CF911F91089582EA15
:100130000E947A0081B1887F8831A1F7812F0E94C7
:100140007A0081B1887F883269F70E94810081B18D
:10015000887F803139F783EA0E947A0081B1887FF5
:10016000803401F784E886BF06B607FEFDCF83B171
:10017000888381B1887F8835A9F684E986BF81E0CC
:10018000D2CF1F93CF93DF93EC01162F0E948100F3
:1001900081B1887F883029F080E0DF91CF911F9175
:1001A0000895CE01880F892F881F990B91958E7025
:1001B000806A0E947A0081B1887F883169F78C2F2C
:1001C0000E947A0081B1887F883231F7812F0E94A6
:1001D0007A0081B1887F8832F9F684E986BF81E0B0
:1001E000DCCF9F92AF92BF92CF92DF92EF92FF92BD
:1001F0000F931F93CF93DF938C01EE24E394F12CA4
:1002000088E7A82E80E0B82ED12CC12C13C001960F
:1002100084309105F9F482B3970101C0220F9A94BA
:10022000EAF7822B82BBEFEFCE1ADE0AF4E0CF169C
:10023000D10431F3F50191905F01C92DD0E050E078
:1002400040E0BE0183E090E00E944100E4E7F0E07E
:1002500090E080E0619126B330E0062E02C0359533
:1002600027950A94E2F720FDD2CFFC01EE0FFF1F85
:10027000EE0FFF1FEC59FF4FEC0DFD1D2081C70154
:1002800002C0880F991F6A95E2F7AC0186B390E02F
:1002900084239523892BD1F382B3A70101C0440F96
:1002A000CA95EAF7842B82BB2F3F09F4A9CFF80146
:1002B0002083DF91CF911F910F91FF90EF90DF90FE
:1002C000CF90BF90AF909F900895CF93C82FD99AA9
:1002D00085E08A95F1F70000DA9A95E09A95F1F7B2
:1002E0000000C4FB442740F950E063E070E090E078
:1002F00080E00E944100C5FB442740F950E064E0E3
:1003000070E090E080E00E944100C6FB442740F985
:1003100050E065E070E090E080E00E9441004C2FEA
:10032000441F4427441F50E066E070E090E080E006
:100330000E9441008FE99FE00197F1F700C00000A3
:10034000DA9895E09A95F1F70000DA9A85E08A95B7
:10035000F1F700004C2F417050E063E070E090E056
:1003600080E00E944100C1FB442740F950E064E076
:1003700070E090E080E00E944100C2FB442740F919
:1003800050E065E070E090E080E00E944100C3FB37
:10039000442740F950E066E070E090E080E00E9481
:1003A00041008FE99FE00197F1F700C00000DA9863
:1003B00095E09A95F1F70000CF9108950F931F9360
:1003C000CF938C01C0E0F801EC0FF11D8081811109
:1003D00004C0CF911F910F9108950E946501CF5FD6
:1003E000F2CFCF93DF93CDB7DEB760970FB6F89417
:1003F000DEBF0FBECDBF4AE0BE016F5F7F4F0E94E0
:100400007407CE0101960E94DE0160960FB6F89443
:10041000DEBF0FBECDBFDF91CF910895CF93C82F20
:10042000D99885E08A95F1F70000DA9A95E09A95D7
:10043000F1F70000C4FB442740F950E063E070E0AE
:1004400090E080E00E944100C5FB442740F950E065
:1004500064E070E090E080E00E944100C6FB442729
:1004600040F950E065E070E090E080E00E944100DB
:100470004C2F441F4427441F50E066E070E090E09A
:1004800080E00E9441008FE99FE00197F1F700C0F2
:100490000000DA9895E09A95F1F70000DA9A85E085
:1004A0008A95F1F700004C2F417050E063E070E056
:1004B00090E080E00E944100C1FB442740F950E0F9
:1004C00064E070E090E080E00E944100C2FB4427BD
:1004D00040F950E065E070E090E080E00E9441006B
:1004E000C3FB442740F950E066E070E090E080E014
:1004F0000E9441008FE99FE00197F1F700C00000E2
:10050000DA9895E09A95F1F70000CF91089581E08F
:100510000C940E02CF93DF93EC01613009F4405C40
:10052000842F80680E940E02CE01DF91CF910C943F
:10053000DE01CF93DF93CDB7DEB72C970FB6F894DB
:10054000DEBF0FBECDBF82E080B911B882B984E0B2
:1005500086BF8A9A8B9A8C9A8E9A929A939A949A38
:10056000969ABC98BD98BE98BF98C49AC59AC69AE8
:10057000C79AD19AD29A2FEF89EF90E0215080400C
:100580009040E1F700C00000D39AD49AD59AD69A49
:10059000EFEFF9EF20E0E150F0402040E1F700C03C
:1005A000000083E30E940E0282E30E940E0288E2B2
:1005B0000E940E028CE00E940E0281E00E940E0258
:1005C00080B5806880BD80B5826080BD80B5846064
:1005D00080BD10BC83E389B9549A539AB89AB99AEA
:1005E000BA9AC098C198C29A8FEF8A8780916000AA
:1005F00090916100A0916200B091630089839A8319
:10060000AB83BC838D839E83AF83B8871B861C8698
:1006100043E060E08CE790E00E948A0243E061E002
:1006200087E890E00E948A028FEF93EDE0E381502B
:100630009040E040E1F700C000000E948702BE0148
:10064000645F7F4F80E091E00E9487008C8581305D
:1006500009F4FEC040E060E082E990E00E948A0276
:1006600040E061E082EA90E00E948A02FFEF2FE022
:1006700087E2F15020408040E1F700C000000E9476
:10068000870240E060E081EB90E00E948A0240E057
:1006900061E080EC90E00E948A02FE0131967F01C9
:1006A0006F011BE41F3409F0ACC002E011E0F70158
:1006B00061917F01C8010E94C1008FE39CE901970D
:1006C000F1F700C000000F5F1F4F063091E01907DF
:1006D00071F761E080E091E00E94C1000E94870212
:1006E00043E060E08CEC90E00E948A02EFEFFFE0D4
:1006F00027E2E150F0402040E1F700C000000E94F6
:10070000870260E08AE091E00E94C10010E073E09F
:10071000A72EB12C8B85813001F540E060E087ED9C
:1007200090E00E948A0240E061E085EE90E00E9445
:100730008A02C09A8FEF97EAE1E681509040E0404C
:10074000E1F700C00000C0981B8660E08AE091E0FD
:100750000E94C1000E94870210E040E060E085EF47
:1007600090E00E948A0240E061E085E091E00E9412
:100770008A0280EC0E940E026E01F5E0CF0ED11CC1
:10078000460100E4043409F06BC00E94870262E075
:10079000E62EFF24F3941986BE01675F7F4FC701E1
:1007A0000E948700F60191916F018985981709F4DD
:1007B0007EC01F5F42E060E08AE091E00E948A0212
:1007C00040E061E087E191E00E948A02C501811B5F
:1007D00091090E94F101FFEF2FE087E2F1502040E4
:1007E0008040E1F700C000000E948702133008F447
:1007F00091CF61E08AE091E00E94C10081E08B87A7
:1008000089CFCE010A960E94F1000A8580ED800F03
:100810008A3008F047CFF60101936F01B12E68943A
:10082000B7F88B2D0E940E02802F0E946501FFE712
:1008300029EA83E0F15020408040E1F700C0000049
:100840008B2D0E940E028AE20E9465011F5F2ACF53
:10085000BE01655F7F4F8AE091E00E94870056CF1E
:10086000CE010A960E94F100FA8480ED8F0D8A3045
:1008700008F088CFF401F1924F01E02E6894E7F878
:100880008E2D0E940E028F2D0E946501FFE729EA3E
:1008900083E0F15020408040E1F700C000008E2D41
:1008A0000E940E028AE20E9465010F5F6BCF9FEFEC
:1008B000E91AF90AE6E0EE16E1E0FE0609F06BCF70
:1008C00043E060E083E291E00E948A02FFEF2FE0C4
:1008D00087E2F15020408040E1F700C000000E9414
:1008E000870240E060E080E391E00E948A02C298C3
:1008F000C19A8AE10E9476009FEFE7E9FAE39150FE
:10090000E040F040E1F700C000000E94870240E0B4
:1009100060E080E491E00E948A02C198C29A84E279
:100920000E9476002FEF87E99AE3215080409040A3
:10093000E1F700C000000E9487025AE0C52E0E9425
:10094000870240E060E080E591E00E948A0244E096
:1009500061E080E691E00E948A02CE010A960E9440
:10096000F1008A85813309F045C00E94870288E63C
:1009700091E00E94DE01EFEFF3EC29E0E150F0405E
:100980002040E1F700C000000E94870240E060E0E4
:1009900083E891E00E948A0243E061E084E991E00B
:1009A0000E948A02CE010A960E94F1008A85813354
:1009B00009F0C4C00E9487028DE991E00E94DE0127
:1009C0002FEF83EC99E0215080409040E1F700C088
:1009D0000000C298C19A8EE20E947600EFEFFFE21B
:1009E00025E7E150F0402040E1F700C00000C29A46
:1009F000C198CACF823309F04BC00E9487028CE5B0
:100A000091E00E94DE018FEF93ECE9E0815090408D
:100A1000E040E1F700C0000014E089E2B82EB10E1A
:100A2000E12EF12CFFEFEF1AFF0A9BE0A92EA10E99
:100A30002FE1922E910E35E1832E810E0E948702C6
:100A400040E060E083E891E00E948A0243E061E0D8
:100A500084E991E00E948A02CE010A960E94F10088
:100A60008A85813309F083C10E9487028DE991E074
:100A70000E94DE01EFEFF3EC29E0E150F04020406E
:100A8000E1F700C00000143009F41DC18B2D58C1DE
:100A90008333F1F50E94870282E691E00E94DE0135
:100AA000FFEF23EC89E0F15020408040E1F700C0E7
:100AB00000000E94870240E060E08CEE91E00E941E
:100AC0008A0240E061E08DEF91E00E948A02CE014F
:100AD0000A960E94F1008A85803309F443C081534D
:100AE000843008F030C10E9487028EE092E00E94BC
:100AF000DE018A850E9465018FEF93ECE9E0815069
:100B00009040E040E1F700C000001A85115385CF06
:100B10000E9487028DE691E00E94DE0140E061E0E4
:100B200089E791E00E948A029FEFE3ECF9E091509F
:100B3000E040F040E1F700C0000001CF823381F4D3
:100B40000E9487028DE891E00E94DE018FEF93EC16
:100B5000E9E081509040E040E1F700C0000052C061
:100B6000803371F40E94870286E991E00E94DE01E1
:100B7000FFEF23EC89E0F15020408040E1F7DBCF2C
:100B80000E9487028DE691E00E94DE0140E061E074
:100B900089E791E00E948A029FEFE3ECF9E091502F
:100BA000E040F040E1F7EECE833019F480EB91E0C5
:100BB00039C087EB91E036C0823309F067C00E94EC
:100BC000870288EC91E00E94DE018FEF93ECE9E070
:100BD00081509040E040E1F700C0000084E20E94B4
:100BE000760040E060E080E491E00E948A02FFEF3E
:100BF00027E98AE3F15020408040E1F700C000007F
:100C0000C198C29A0E94870282EA91E00E94DE01A6
:100C100080E10E9476005F9BFECF8CB1823021F68E
:100C20008BEA91E00E94DE0140E061E08DEB91E013
:100C30000E948A02CE010A960E94F1008A858133C1
:100C400009F0BACF0E9487028BEA91E00E94DE0190
:100C50002FEF83EC99E0215080409040E1F700C0F5
:100C600000008AE10E94760040E060E080E391E0CD
:100C70000E948A02EFEFF7E92AE3E150F0402040BA
:100C8000E1F700C00000C298C19ABCCF803339F4AC
:100C90000E94870286E991E00E94DE017DCF0E94DA
:100CA00087028DE691E00E94DE0140E061E089E785
:100CB00091E00E948A022FEF83EC99E0215080405E
:100CC0009040E1F74ACF40E060E08EEC91E00E9476
:100CD0008A0240E061E087E091E00E948A0280ECB5
:100CE0000E940E02CE010A960E94F1008A850E949F
:100CF00065018A8540EDD42ED80ECE010A960E9459
:100D0000F1008A850E9465010A850053DC9C000D74
:100D100011240E9487028EED91E00E94DE01802F57
:100D200090E00E94F101EFEFFFE027E2E150F04098
:100D30002040E1F700C0000087E30E947600802F8A
:100D40000E9476007BCE0E9487028DE691E00E9491
:100D5000DE0140E061E089E791E00E948A022FEF26
:100D600083EC99E0215080409040E1F7A0CE82339F
:100D700009F048C00E9487028DE891E00E94DE01E0
:100D80008FEF93ECE9E081509040E040E1F700C044
:100D900000000E948702143009F05FC08CE591E0EA
:100DA0000E94DE0186EA91E00E94DE018A2D0E9407
:100DB00076005F9BFECF8CB1813009F056C083E195
:100DC00092E00E94DE0140E061E086E192E00E9454
:100DD0008A02CE010A960E94F1008A85813309F0C9
:100DE0004CC00E94870283E192E00E94DE01882DC0
:100DF0000E9476002FEF83EC99E0215080409040D4
:100E0000E1F7C5CF803399F40E94870286E991E02B
:100E10000E94DE01FFEF23EC89E0F150204080408A
:100E2000E1F700C00000143009F043CE88CD0E94E5
:100E300087028DE691E00E94DE0140E061E089E7F3
:100E400091E00E948A029FEFE3ECF9E09150E040CC
:100E5000F040E1F700C00000F1CD8EE092E00E948A
:100E6000DE01C7010E94F1019DCF811103C08FE116
:100E700092E0A7CF87EB91E0A4CF823389F40E9460
:100E800087028FE192E00E94DE01892D0E947600A8
:100E9000EFEFF3EC29E0E150F0402040E1F777CFAD
:100EA000803371F40E94870286E991E00E94DE019E
:100EB0008FEF93ECE9E081509040E040E1F7CACF3A
:100EC0000E9487028DE691E00E94DE0140E061E031
:100ED00089E791E00E948A02FFEF23EC89E0F1505C
:100EE00020408040E1F753CFBB274A3031F49923AB
:100EF00022F4BDE2909581959F4F0C948007BB270B
:100F0000FB015527AA27880F991FAA1FA41710F0C5
:100F1000A41B83955051B9F7A05DAA3308F0A95DD1
:100F2000A193009779F7B111B1931192CB010C9471
:100F30009907DC01FC01672F71917723E1F7329764
:100F400004C07C916D9370836291AE17BF07C8F3A4
:060F50000895F894FFCFA4
:100F5600FFFFFFFF3738392F3435362A3132332D2C
:100F660043303D2B040506070203040657656C63F0
:100F76006F6D6520546F00536D61727420486F6DFC
:100F860065004C6F67696E20546F205379737465E2
:100F96006D00466F722046697273742054696D65E0
:100FA600005365742041646D696E2050617373004F
:100FB60041646D696E20506173733A0050617373BA
:100FC600205361766564004C6F67696E20426C6FD2
:100FD600636B656400576169742031302053656323
:100FE6006F6E647300456E7465722050617373771B
:100FF6006F726420005F5F5F5F0057726F6E6720DD
:10100600506173732121005472696573204C6566C3
:10101600743A005269676874205061737321210025
:10102600444F4F52206973204F50454E494E47005A
:10103600444F4F5220697320434C4F53494E47004B
:10104600312E446F6F7220202020322E46616E00B2
:10105600332E526F6F6D7300446F6F720057726F4D
:101066006E6720496E70757400547279204167610D
:10107600696E00312E4155544F2020322E4D616E3F
:1010860075616C00302E52657475726E0041555450
:101096004F00446F6F7220533A20004F70656E0008
:1010A600436C6F736564004552524F5200312E4FA8
:1010B60070656E202020322E436C6F736500536579
:1010C600742054656D70657261747572650054653F
:1010D6006D702053657420746F3A2000312E526F64
:1010E6006F6D312020322E526F6F6D3200332E52CB
:1010F6006F6F6D332020342E526F6F6D3400526F38
:101106006F6D004F6E00312E4F6E202020322E4F15
:041116006666000009
:00000001FF
